:10000000FAC0000013C1000011C100000FC10000C0
:100010000DC100000BC1000009C1000007C10000B4
:1000200005C1000003C1000001C10000C5C10000FE
:10003000FEC10000FBC00000F9C00000F7C00000D6
:10004000F5C00000F3C00000F1C00000EFC00000E8
:10005000EDC00000EBC00000E9C00000BAC3000022
:100060008DC30000E3C00000E1C00000DFC000005D
:10007000DDC00000222C206D757374206265203F66
:10008000206F72203D0D0A00556E6B6E6F776E20EB
:10009000636F6D6D616E64202200222C206D75737C
:1000A000742062652030206F7220310D0A00556E79
:1000B0006B6E6F776E2076616C75652022000D0A7D
:1000C00000222C206D757374206265203020746FBF
:1000D00020370D0A00556E6B6E6F776E2070696E5B
:1000E000202200222C206D7573742062652041202F
:1000F0002D20460D0A00556E6B6E6F776E20706F67
:100100007274202200756E7265636F676E697A651E
:100110006420666F726D61742C2033206368617295
:1001200073206D696E2072657127640D0A000001ED
:10013000000062011200020000740143000300008D
:10014000B7010401030904BB011202030904CF0132
:100150001603030904E7010C0001C1120180260106
:1001600081261201000202000010C0167A0400016C
:100170000102030109024300020100C03209040028
:100180000001020201000524001001052401010103
:10019000042402060524060001070582031000401E
:1001A00009040100020A0000000705030220000004
:1001B00007058402200000040309041203520047CB
:1001C0000020004400650062007500670000001612
:1001D000035500530042002000530065007200697F
:1001E0000061006C0000000C033100320033003469
:1001F00000350000000011241FBECFEFD2E0DEBFAB
:10020000CDBF11E0A0E0B1E0ECE6FAE002C005905D
:100210000D92AE30B107D9F712E0AEE0B1E001C007
:100220001D92AE31B107E1F732D01EC4E9CEFB0119
:10023000282F2F70807F907034E0959587953A95A0
:10024000E1F78A3010F4805D01C0895C80832A3038
:1002500010F4205D01C0295C2183089580E880931B
:10026000610010926100569A5E9A1AB88FEF8BB9AE
:1002700060E072EC81E090E045D22DD042D088233E
:10028000E9F397D080FFFDCF3FD05E9808950F939C
:100290001F93E4DF62D28093190290910E018917B7
:1002A000C9F382E090E0DBD28C018091190290E0EA
:1002B000B801BDDFF80180813AD0F801818137D0E3
:1002C0008DE035D08AE033D0C80176D38091190211
:1002D00080930E01DFCF80EA8093D80086E089BD4D
:1002E00009B400FEFDCF80E88093D8001092E000B2
:1002F00010920F01109210018CE08093E20078942C
:10030000089580910F01089580910F01882371F065
:100310009FB7F89483E08093E9002BE602C0209316
:10032000E8008091E80085FDFACF9FBF0895482F2F
:1003300080910F018823D9F12FB7F89484E080933E
:10034000E90080911201882341F08091E80085FD49
:1003500002C02FBF12C0109212019091E400975E6C
:1003600034E08091E80085FD13C02FBF8091E40048
:10037000891729F481E0809312018FEF089580910D
:100380000F018823A1F02FB7F8943093E900E9CF4B
:100390004093F1008091E80085FD03C08AE38093DB
:1003A000E80085E0809311012FBF80E008958FEF72
:1003B00008958091100108951F920F920FB60F9229
:1003C00011248F939F938091E1001092E100982F68
:1003D00083FF11C01092E90081E08093EB0010923E
:1003E000EC0082E18093ED0088E08093F0001092B1
:1003F0000F011092100192FF13C080910F0188230A
:1004000079F080911101882359F081508093110176
:10041000882331F484E08093E9008AE38093E80044
:100420009F918F910F900FBE0F901F9018951F9264
:100430000F920FB60F9211240F931F932F933F9398
:100440004F935F936F937F938F939F93AF93BF93DC
:10045000EF93FF931092E9008091E80083FF3CC185
:100460004091F1003091F1008091F100682F70E02F
:100470002091F100922F80E0682B792B8091F10080
:10048000A82FB0E02091F100922F80E0A82BB92B8B
:100490001091F1000091F10082EF8093E800363076
:1004A00009F05AC025E331E0A90145505040F90157
:1004B0003797859194918617970701F5FA018591F1
:1004C00094918A179B07D1F49A012E5F3F4FF9014F
:1004D000659174912E5F3F4FF9014491212F30E0D7
:1004E000902F80E0282B392B2F3F310519F010F089
:1004F0002FEF30E0241758F4422F09C0295F3F4FF7
:10050000495F5F4FF1E02F353F0789F6E5C05EEFA9
:100510008091E800282F30E0C90185709070892B08
:10052000B9F322FDDCC0342F413108F030E1232F34
:10053000CB0106C0FC010196E491E093F10021504B
:100540002223C1F7630F711D431B5093E80044231E
:10055000F9F63031E9F2C3C0353061F48EEF8093A3
:10056000E8008091E80080FFFCCF862F80688093B0
:10057000E300B5C0393051F5442309F0ADC06093B4
:100580000F0110921001109211018EEF8093E8007C
:1005900088E591E021E02093E900FC010196E491D7
:1005A000E093EB00EE2369F0AC014F5F5F4FFC017D
:1005B00084918093EC00CA010196FA013491309342
:1005C000ED002F5F253039F78EE181C0383061F4BE
:1005D000403809F081C08091E80080FFFCCF809115
:1005E0000F018093F10050C0313289F4413A09F093
:1005F00073C08091E80080FFFCCFE0E0F1E08191E2
:100600008093F10081E0E730F807C9F73DC0303250
:10061000A1F4413209F060C08091E80082FFFCCF74
:10062000E0E0F1E08091F100819381E0E730F807AC
:10063000C9F78BEF8093E80027C0323251F4413282
:1006400009F04AC0609310018091E80080FFFCCF60
:100650001BC03323E9F48091E80080FFFCCF4238CF
:1006600011F080E00DC0A093E9008091EB0090E0D4
:1006700025E0969587952A95E1F781701092E9001B
:100680008093F1001092F1008EEF8093E80027C074
:10069000313011F0333001F54230F1F4672BE1F4E1
:1006A0002A2F2F77822F81508430B0F48EEF8093E1
:1006B000E8002093E900333079F089E18093EB0082
:1006C00081E090E002C0880F991F2A95E2F780939D
:1006D000EA001092EA0003C081E28093EB00FF91F0
:1006E000EF91BF91AF919F918F917F916F915F91AA
:1006F0004F913F912F911F910F910F900FBE0F902F
:100700001F9018959B01AC01F89460E079E08DE3AF
:1007100090E083D02150304040405040569547955E
:10072000379527953093CD002093CC0082E08093BD
:10073000C80088E98093C90086E08093CA001092BF
:100740001601809116018093150110921802809174
:10075000180280931702789408959091170280915F
:1007600018029817D1F3909118029F5FE92FF0E0DB
:10077000E95EFE4F80819093180208951F920F92B8
:100780000FB60F9211248F939F93EF93FF93909145
:10079000150180911601981721F488E98093C9000A
:1007A0000FC0909116019F5F923008F090E0E92F02
:1007B000F0E0ED5EFE4F80818093CE0090931601B5
:1007C000FF91EF919F918F910F900FBE0F901F900F
:1007D00018951F920F920FB60F9211242F938F939B
:1007E0009F93EF93FF932091CE00909117029F5F0C
:1007F00080911802981739F0E92FF0E0E95EFE4F7A
:10080000208390931702FF91EF919F918F912F91E9
:100810000F900FBE0F901F901895A1E21A2EAA1BE1
:10082000BB1BFD010DC0AA1FBB1FEE1FFF1FA217A0
:10083000B307E407F50720F0A21BB30BE40BF50B9D
:10084000661F771F881F991F1A9469F76095709526
:10085000809590959B01AC01BD01CF010895CF9388
:10086000DF93BC018230910510F462E070E0A0914A
:100870001C02B0911D02ED01E0E0F0E040E050E02C
:1008800021C0888199818617970769F48A819B81A5
:10089000309719F09383828304C090931D02809354
:1008A0001C02FE0134C06817790738F44115510560
:1008B00019F08417950708F4AC01FE018A819B8129
:1008C0009C01E9012097E9F641155105A9F1CA01FA
:1008D000861B970B049708F4BA01E0E0F0E02AC009
:1008E0008D919C91119784179507F9F464177507FA
:1008F00081F412968D919C911397309719F0938300
:10090000828304C090931D0280931C02FD013296E5
:100910004FC0CA01861B970BFD01E80FF91F6193B9
:10092000719302978D939C9343C0FD0182819381C3
:100930009C01D9011097A1F680911A0290911B0297
:10094000892B41F48091090190910A0190931B0237
:1009500080931A0240910B0150910C0141155105F1
:1009600041F44DB75EB78091070190910801481B93
:10097000590B20911A0230911B0224173507B0F44D
:10098000CA01821B930B8617970780F0AB014E5F5D
:100990005F4F8417950750F0420F531F50931B026F
:1009A00040931A02F9016193719302C0E0E0F0E014
:1009B000CF01DF91CF910895CF93DF93009709F492
:1009C00050C0EC0122971B821A82A0911C02B091A8
:1009D0001D02109709F140E050E0AC17BD0708F187
:1009E000BB83AA83FE0121913191E20FF31FAE1761
:1009F000BF0779F48D919C911197280F391F2E5FB5
:100A00003F4F3983288312968D919C9113979B8336
:100A10008A834115510571F4D0931D02C0931C02C5
:100A200020C012968D919C911397AD01009711F003
:100A3000DC01D3CFFA01D383C28321913191E20F3C
:100A4000F31FCE17DF0769F488819981280F391FBA
:100A50002E5F3F4FFA01318320838A819B819383EC
:0C0A60008283DF91CF910895F894FFCFBE
:0E0A6C0000E1000000000820001E0200000053
:00000001FF
